{
  "contractName": "PatientData",
  "abi": [
    {
      "inputs": [],
      "payable": false,
      "stateMutability": "nonpayable",
      "type": "constructor"
    },
    {
      "constant": true,
      "inputs": [],
      "name": "countMedicalReports",
      "outputs": [
        {
          "internalType": "uint256",
          "name": "",
          "type": "uint256"
        }
      ],
      "payable": false,
      "stateMutability": "view",
      "type": "function"
    },
    {
      "constant": true,
      "inputs": [
        {
          "internalType": "uint256",
          "name": "",
          "type": "uint256"
        }
      ],
      "name": "medicalReports",
      "outputs": [
        {
          "internalType": "address",
          "name": "senderId",
          "type": "address"
        },
        {
          "internalType": "string",
          "name": "medReportId",
          "type": "string"
        },
        {
          "internalType": "uint256",
          "name": "weight",
          "type": "uint256"
        },
        {
          "internalType": "uint256",
          "name": "height",
          "type": "uint256"
        },
        {
          "internalType": "string",
          "name": "bloodGroup",
          "type": "string"
        },
        {
          "internalType": "string",
          "name": "diseaseName",
          "type": "string"
        },
        {
          "internalType": "string",
          "name": "diseaseDescription",
          "type": "string"
        },
        {
          "internalType": "string",
          "name": "diseaseStartedOn",
          "type": "string"
        }
      ],
      "payable": false,
      "stateMutability": "view",
      "type": "function"
    },
    {
      "constant": true,
      "inputs": [
        {
          "internalType": "address",
          "name": "",
          "type": "address"
        }
      ],
      "name": "senders",
      "outputs": [
        {
          "internalType": "string",
          "name": "name",
          "type": "string"
        },
        {
          "internalType": "string",
          "name": "institutionName",
          "type": "string"
        },
        {
          "internalType": "string",
          "name": "institutionCode",
          "type": "string"
        },
        {
          "internalType": "uint256",
          "name": "patientCount",
          "type": "uint256"
        }
      ],
      "payable": false,
      "stateMutability": "view",
      "type": "function"
    },
    {
      "constant": false,
      "inputs": [
        {
          "internalType": "string",
          "name": "patientId",
          "type": "string"
        },
        {
          "internalType": "string",
          "name": "patientName",
          "type": "string"
        },
        {
          "internalType": "string",
          "name": "birthDate",
          "type": "string"
        },
        {
          "internalType": "string",
          "name": "phoneNumber",
          "type": "string"
        },
        {
          "internalType": "string",
          "name": "_address",
          "type": "string"
        },
        {
          "internalType": "string",
          "name": "medReportId",
          "type": "string"
        },
        {
          "internalType": "uint256",
          "name": "weight",
          "type": "uint256"
        },
        {
          "internalType": "uint256",
          "name": "height",
          "type": "uint256"
        },
        {
          "internalType": "string",
          "name": "bloodGroup",
          "type": "string"
        },
        {
          "internalType": "string",
          "name": "diseaseName",
          "type": "string"
        },
        {
          "internalType": "string",
          "name": "diseaseDescription",
          "type": "string"
        },
        {
          "internalType": "string",
          "name": "diseaseStartedOn",
          "type": "string"
        }
      ],
      "name": "addMedicalReport",
      "outputs": [],
      "payable": false,
      "stateMutability": "nonpayable",
      "type": "function"
    },
    {
      "constant": true,
      "inputs": [
        {
          "internalType": "uint256",
          "name": "index",
          "type": "uint256"
        }
      ],
      "name": "getPatientsList",
      "outputs": [
        {
          "internalType": "string",
          "name": "",
          "type": "string"
        },
        {
          "internalType": "string",
          "name": "",
          "type": "string"
        },
        {
          "internalType": "string",
          "name": "",
          "type": "string"
        },
        {
          "internalType": "string",
          "name": "",
          "type": "string"
        },
        {
          "internalType": "uint256",
          "name": "",
          "type": "uint256"
        }
      ],
      "payable": false,
      "stateMutability": "view",
      "type": "function"
    }
  ],
  "bytecode": "0x608060405260008055600060045534801561001957600080fd5b50611d98806100296000396000f3fe608060405234801561001057600080fd5b50600436106100565760003560e01c806260d3991461005b578063360d0f29146105bb578063982fb9d8146105d5578063a2df7d0b14610746578063beedbba91461099a575b600080fd5b6105b9600480360361018081101561007257600080fd5b810190602081018135600160201b81111561008c57600080fd5b82018360208201111561009e57600080fd5b803590602001918460018302840111600160201b831117156100bf57600080fd5b91908080601f0160208091040260200160405190810160405280939291908181526020018383808284376000920191909152509295949360208101935035915050600160201b81111561011157600080fd5b82018360208201111561012357600080fd5b803590602001918460018302840111600160201b8311171561014457600080fd5b91908080601f0160208091040260200160405190810160405280939291908181526020018383808284376000920191909152509295949360208101935035915050600160201b81111561019657600080fd5b8201836020820111156101a857600080fd5b803590602001918460018302840111600160201b831117156101c957600080fd5b91908080601f0160208091040260200160405190810160405280939291908181526020018383808284376000920191909152509295949360208101935035915050600160201b81111561021b57600080fd5b82018360208201111561022d57600080fd5b803590602001918460018302840111600160201b8311171561024e57600080fd5b91908080601f0160208091040260200160405190810160405280939291908181526020018383808284376000920191909152509295949360208101935035915050600160201b8111156102a057600080fd5b8201836020820111156102b257600080fd5b803590602001918460018302840111600160201b831117156102d357600080fd5b91908080601f0160208091040260200160405190810160405280939291908181526020018383808284376000920191909152509295949360208101935035915050600160201b81111561032557600080fd5b82018360208201111561033757600080fd5b803590602001918460018302840111600160201b8311171561035857600080fd5b91908080601f0160208091040260200160405190810160405280939291908181526020018383808284376000920191909152509295843595602086013595919450925060608101915060400135600160201b8111156103b657600080fd5b8201836020820111156103c857600080fd5b803590602001918460018302840111600160201b831117156103e957600080fd5b91908080601f0160208091040260200160405190810160405280939291908181526020018383808284376000920191909152509295949360208101935035915050600160201b81111561043b57600080fd5b82018360208201111561044d57600080fd5b803590602001918460018302840111600160201b8311171561046e57600080fd5b91908080601f0160208091040260200160405190810160405280939291908181526020018383808284376000920191909152509295949360208101935035915050600160201b8111156104c057600080fd5b8201836020820111156104d257600080fd5b803590602001918460018302840111600160201b831117156104f357600080fd5b91908080601f0160208091040260200160405190810160405280939291908181526020018383808284376000920191909152509295949360208101935035915050600160201b81111561054557600080fd5b82018360208201111561055757600080fd5b803590602001918460018302840111600160201b8311171561057857600080fd5b91908080601f016020809104026020016040519081016040528093929190818152602001838380828437600092019190915250929550610b68945050505050565b005b6105c361147e565b60408051918252519081900360200190f35b6105fb600480360360208110156105eb57600080fd5b50356001600160a01b0316611484565b60405180806020018060200180602001858152602001848103845288818151815260200191508051906020019080838360005b8381101561064657818101518382015260200161062e565b50505050905090810190601f1680156106735780820380516001836020036101000a031916815260200191505b50848103835287518152875160209182019189019080838360005b838110156106a657818101518382015260200161068e565b50505050905090810190601f1680156106d35780820380516001836020036101000a031916815260200191505b50848103825286518152865160209182019188019080838360005b838110156107065781810151838201526020016106ee565b50505050905090810190601f1680156107335780820380516001836020036101000a031916815260200191505b5097505050505050505060405180910390f35b6107636004803603602081101561075c57600080fd5b5035611656565b60405180896001600160a01b03166001600160a01b03168152602001806020018881526020018781526020018060200180602001806020018060200186810386528d818151815260200191508051906020019080838360005b838110156107d45781810151838201526020016107bc565b50505050905090810190601f1680156108015780820380516001836020036101000a031916815260200191505b5086810385528a5181528a516020918201918c019080838360005b8381101561083457818101518382015260200161081c565b50505050905090810190601f1680156108615780820380516001836020036101000a031916815260200191505b5086810384528951815289516020918201918b019080838360005b8381101561089457818101518382015260200161087c565b50505050905090810190601f1680156108c15780820380516001836020036101000a031916815260200191505b5086810383528851815288516020918201918a019080838360005b838110156108f45781810151838201526020016108dc565b50505050905090810190601f1680156109215780820380516001836020036101000a031916815260200191505b50868103825287518152875160209182019189019080838360005b8381101561095457818101518382015260200161093c565b50505050905090810190601f1680156109815780820380516001836020036101000a031916815260200191505b509d505050505050505050505050505060405180910390f35b6109b7600480360360208110156109b057600080fd5b5035611961565b604051808060200180602001806020018060200186815260200185810385528a818151815260200191508051906020019080838360005b83811015610a065781810151838201526020016109ee565b50505050905090810190601f168015610a335780820380516001836020036101000a031916815260200191505b5085810384528951815289516020918201918b019080838360005b83811015610a66578181015183820152602001610a4e565b50505050905090810190601f168015610a935780820380516001836020036101000a031916815260200191505b5085810383528851815288516020918201918a019080838360005b83811015610ac6578181015183820152602001610aae565b50505050905090810190601f168015610af35780820380516001836020036101000a031916815260200191505b50858103825287518152875160209182019189019080838360005b83811015610b26578181015183820152602001610b0e565b50505050905090810190601f168015610b535780820380516001836020036101000a031916815260200191505b50995050505050505050505060405180910390f35b606060016000336001600160a01b03166001600160a01b031681526020019081526020016000206005018d6040518082805190602001908083835b60208310610bc25780518252601f199092019160209182019101610ba3565b518151600019602094850361010090810a820192831692199390931691909117909252949092019687526040805197889003820188208054601f6002600183161590980290950116959095049283018290048202880182019052818752929450925050830182828015610c765780601f10610c4b57610100808354040283529160200191610c76565b820191906000526020600020905b815481529060010190602001808311610c5957829003601f168201915b50505050509050805160001415610f41578c60016000336001600160a01b03166001600160a01b03168152602001908152602001600020600401600060016000336001600160a01b03166001600160a01b0316815260200190815260200160002060030160008154809291906001019190505581526020019081526020016000209080519060200190610d0a929190611c99565b506040518060a001604052808d81526020018c81526020018b81526020018a815260200160005481525060016000336001600160a01b03166001600160a01b031681526020019081526020016000206005018e6040518082805190602001908083835b60208310610d8c5780518252601f199092019160209182019101610d6d565b51815160209384036101000a6000190180199092169116179052920194855250604051938490038101909320845180519194610dcd94508593500190611c99565b506020828101518051610de69260018501920190611c99565b5060408201518051610e02916002840191602090910190611c99565b5060608201518051610e1e916003840191602090910190611c99565b5060809182015160049190910155604080516101008101825233815260208082018c81528284018c9052606083018b905293820189905260a0820188905260c0820187905260e08201869052600080546001808201835590825260028352939020825181546001600160a01b0319166001600160a01b0390911617815593518051929493610eb493908501929190910190611c99565b50604082015160028201556060820151600382015560808201518051610ee4916004840191602090910190611c99565b5060a08201518051610f00916005840191602090910190611c99565b5060c08201518051610f1c916006840191602090910190611c99565b5060e08201518051610f38916007840191602090910190611c99565b5090505061146f565b610f49611d17565b60016000336001600160a01b03166001600160a01b031681526020019081526020016000206005018e6040518082805190602001908083835b60208310610fa15780518252601f199092019160209182019101610f82565b518151600019602094850361010090810a82019283169219939093169190911790925294909201968752604080519788900382018820805460c0601f600260018416159099029096019091169690960493840183900490920288018501905260a08701828152909550869450928592508401828280156110625780601f1061103757610100808354040283529160200191611062565b820191906000526020600020905b81548152906001019060200180831161104557829003601f168201915b50505050508152602001600182018054600181600116156101000203166002900480601f0160208091040260200160405190810160405280929190818152602001828054600181600116156101000203166002900480156111045780601f106110d957610100808354040283529160200191611104565b820191906000526020600020905b8154815290600101906020018083116110e757829003601f168201915b5050509183525050600282810180546040805160206001841615610100026000190190931694909404601f810183900483028501830190915280845293810193908301828280156111965780601f1061116b57610100808354040283529160200191611196565b820191906000526020600020905b81548152906001019060200180831161117957829003601f168201915b505050918352505060038201805460408051602060026001851615610100026000190190941693909304601f810184900484028201840190925281815293820193929183018282801561122a5780601f106111ff5761010080835404028352916020019161122a565b820191906000526020600020905b81548152906001019060200180831161120d57829003601f168201915b5050505050815260200160048201548152505090506040518060a001604052808e81526020018d81526020018c81526020018b8152602001826080015181525060016000336001600160a01b03166001600160a01b031681526020019081526020016000206005018f6040518082805190602001908083835b602083106112c25780518252601f1990920191602091820191016112a3565b51815160209384036101000a600019018019909216911617905292019485525060405193849003810190932084518051919461130394508593500190611c99565b50602082810151805161131c9260018501920190611c99565b5060408201518051611338916002840191602090910190611c99565b5060608201518051611354916003840191602090910190611c99565b5060809182015160049190910155604080516101008101825233815260208082018d81528284018d9052606083018c90528285018b905260a083018a905260c0830189905260e083018890529385015160009081526002825292909220815181546001600160a01b0319166001600160a01b03909116178155925180519193926113e692600185019290910190611c99565b50604082015160028201556060820151600382015560808201518051611416916004840191602090910190611c99565b5060a08201518051611432916005840191602090910190611c99565b5060c0820151805161144e916006840191602090910190611c99565b5060e0820151805161146a916007840191602090910190611c99565b505050505b50505050505050505050505050565b60005481565b60016020818152600092835260409283902080548451600294821615610100026000190190911693909304601f81018390048302840183019094528383529283918301828280156115165780601f106114eb57610100808354040283529160200191611516565b820191906000526020600020905b8154815290600101906020018083116114f957829003601f168201915b505050505090806001018054600181600116156101000203166002900480601f0160208091040260200160405190810160405280929190818152602001828054600181600116156101000203166002900480156115b45780601f10611589576101008083540402835291602001916115b4565b820191906000526020600020905b81548152906001019060200180831161159757829003601f168201915b50505060028085018054604080516020601f60001961010060018716150201909416959095049283018590048502810185019091528181529596959450909250908301828280156116465780601f1061161b57610100808354040283529160200191611646565b820191906000526020600020905b81548152906001019060200180831161162957829003601f168201915b5050505050908060030154905084565b6002602081815260009283526040928390208054600180830180548751601f600019948316156101000294909401909116969096049182018590048502860185019096528085526001600160a01b03909116949193928301828280156116fd5780601f106116d2576101008083540402835291602001916116fd565b820191906000526020600020905b8154815290600101906020018083116116e057829003601f168201915b505050505090806002015490806003015490806004018054600181600116156101000203166002900480601f0160208091040260200160405190810160405280929190818152602001828054600181600116156101000203166002900480156117a75780601f1061177c576101008083540402835291602001916117a7565b820191906000526020600020905b81548152906001019060200180831161178a57829003601f168201915b5050505060058301805460408051602060026001851615610100026000190190941693909304601f81018490048402820184019092528181529495949350908301828280156118375780601f1061180c57610100808354040283529160200191611837565b820191906000526020600020905b81548152906001019060200180831161181a57829003601f168201915b5050505060068301805460408051602060026001851615610100026000190190941693909304601f81018490048402820184019092528181529495949350908301828280156118c75780601f1061189c576101008083540402835291602001916118c7565b820191906000526020600020905b8154815290600101906020018083116118aa57829003601f168201915b5050505060078301805460408051602060026001851615610100026000190190941693909304601f81018490048402820184019092528181529495949350908301828280156119575780601f1061192c57610100808354040283529160200191611957565b820191906000526020600020905b81548152906001019060200180831161193a57829003601f168201915b5050505050905088565b6060806060806000611971611d17565b3360009081526001602081815260408084208b8552600481019092529283902092518354600590920193929091829184916002918116156101000260001901160480156119f55780601f106119d35761010080835404028352918201916119f5565b820191906000526020600020905b8154815290600101906020018083116119e1575b505092835250506040805160209281900383018120805460026001821615610100026000190190911604601f8101859004909402820160c090810190935260a08201848152919390928492918491840182828015611a945780601f10611a6957610100808354040283529160200191611a94565b820191906000526020600020905b815481529060010190602001808311611a7757829003601f168201915b50505050508152602001600182018054600181600116156101000203166002900480601f016020809104026020016040519081016040528092919081815260200182805460018160011615610100020316600290048015611b365780601f10611b0b57610100808354040283529160200191611b36565b820191906000526020600020905b815481529060010190602001808311611b1957829003601f168201915b5050509183525050600282810180546040805160206001841615610100026000190190931694909404601f81018390048302850183019091528084529381019390830182828015611bc85780601f10611b9d57610100808354040283529160200191611bc8565b820191906000526020600020905b815481529060010190602001808311611bab57829003601f168201915b505050918352505060038201805460408051602060026001851615610100026000190190941693909304601f8101849004840282018401909252818152938201939291830182828015611c5c5780601f10611c3157610100808354040283529160200191611c5c565b820191906000526020600020905b815481529060010190602001808311611c3f57829003601f168201915b50505091835250506004919091015460209182015281519082015160408301516060840151608090940151929b919a509850919650945092505050565b828054600181600116156101000203166002900490600052602060002090601f016020900481019282601f10611cda57805160ff1916838001178555611d07565b82800160010185558215611d07579182015b82811115611d07578251825591602001919060010190611cec565b50611d13929150611d46565b5090565b6040518060a0016040528060608152602001606081526020016060815260200160608152602001600081525090565b611d6091905b80821115611d135760008155600101611d4c565b9056fea265627a7a723158208f91a4032a053c802183721a082dfb59909f339c22d850b87474346530347d9864736f6c63430005100032",
  "source": "pragma solidity 0.5.16;\n\ncontract PatientData {\n  uint256 public countMedicalReports = 0;\n \n  mapping(address => Sender) public senders;\n  mapping(uint => PatientMedicalReportStruct) public medicalReports;\n\n  mapping(uint => string) hashes;\n  uint hashCount = 0;\n\n  struct PatientBioStruct {\n    string name;\n    string birthDate;\n    string phoneNumber;\n    string _address;\n    uint medicalReportNo;\n  }\n\n  struct PatientMedicalReportStruct {\n    address senderId;\n    string medReportId;\n    uint weight;\n    uint height;\n    string bloodGroup;\n    string diseaseName;\n    string diseaseDescription;\n    string diseaseStartedOn;\n  }\n\n  struct Sender {\n    string name;\n    string institutionName;\n    string institutionCode;\n    uint patientCount;\n    mapping(uint => string) patientsArray;\n    mapping(string => PatientBioStruct) patients;\n  }\n\n  constructor() public {\n  }\n\n  function addMedicalReport(\n    string memory patientId,\n    string memory patientName, \n    string memory birthDate, \n    string memory phoneNumber, \n    string memory _address,\n    string memory medReportId,\n    uint weight,\n    uint height,\n    string memory bloodGroup,\n    string memory diseaseName,\n    string memory diseaseDescription,\n    string memory diseaseStartedOn\n  ) public {\n    // uint _hash = uint(keccak256(abi.encodePacked(msg.sender, patientId, medReportId)));\n    bytes memory name = bytes(senders[msg.sender].patients[patientId].name); \n    if( name.length == 0)\n    {\n      senders[msg.sender].patientsArray[senders[msg.sender].patientCount++] = patientId; \n      senders[msg.sender].patients[patientId] = \n        PatientBioStruct(patientName, birthDate, phoneNumber, _address, countMedicalReports);\n    \n      medicalReports[countMedicalReports++] = \n        PatientMedicalReportStruct(msg.sender,medReportId,  weight, height, bloodGroup, diseaseName, diseaseDescription, diseaseStartedOn);\n  \n    } else {\n      PatientBioStruct memory patientBio = \n        senders[msg.sender].patients[patientId];\n      senders[msg.sender].patients[patientId] = \n        PatientBioStruct(patientName, birthDate, phoneNumber, _address, patientBio.medicalReportNo);\n      medicalReports[patientBio.medicalReportNo] = \n        PatientMedicalReportStruct(msg.sender, medReportId, weight, height, bloodGroup, diseaseName, diseaseDescription, diseaseStartedOn);\n  \n    }\n  }\n\n  function getPatientsList(uint index) public view returns (\n    string memory,\n    string memory, \n    string memory, \n    string memory, \n    uint) {\n    PatientBioStruct memory patientBio = \n      senders[msg.sender].patients[senders[msg.sender].patientsArray[index]];\n    return (\n      patientBio.name,\n      patientBio.birthDate,\n      patientBio.phoneNumber,\n      patientBio._address,\n      patientBio.medicalReportNo\n    );\n  }\n}\n\n\n\n  // hashes[0] = \"da52b2c2cb1f489f33140c4b75a327bf6c0d6f59\";\n  // hashes[1] = \"a76a824ddfe85416fa340580773e4c0f8a166141\";\n  // hashes[2] = \"89315849195a60c41f8486621ec8573dbeb4b016\";\n  // hashes[3] = \"e15789896d995a86e0cb5460d16b2f7923dcb5de\";\n  // hashes[4] = \"664837b1f44f1d613ff380c4027a9d0668d99be6\";\n  // hashes[5] = \"d356b809e19dad4175e45e3ccd0e47e71513bf1a\";\n  // hashes[6] = \"eea5eedbdda51657d9dd4826eba76ed0b22539c4\";\n  // hashes[7] = \"8b0b0653bf3f33fb5f9d04e9c62cd85cbf3e8fcc\";\n  // hashes[8] = \"5dd054b4f6cf6d98a183c35dc08c73aa1a80447a\";\n  // hashes[9] = \"26ddd4f134ef98f49f22742bc5472d413a93fe03\";\n  \n    // addMedicalReport(\n    //   \"DJX1234KL\",\n    //   \"Vishwas Paikra\", \n    //   \"22 sep 1998\", \"1234567890\", \n    //   \"hno535 vishal gaon near central park of bhilai cg\", \n    //   \"MEDREPIDDFG3456KL\", 58, 164, \n    //   \"B+\", \"Hypermyopia\", \n    //   \"Caused by the continuous exposure to harmful blue light\", \n    //   \"01 mar 2016\");",
  "sourcePath": "C:\\Users\\Asus\\health-chain\\contracts\\PatientData.sol",
  "compiler": {
    "name": "solc",
    "version": "0.5.16+commit.9c3226ce.Emscripten.clang"
  },
  "schemaVersion": "3.4.16",
  "updatedAt": "2023-10-14T08:13:06.933Z",
  "networkType": "ethereum",
  "devdoc": {
    "methods": {}
  },
  "userdoc": {
    "methods": {}
  }
}