{
  "contractName": "SaveData",
  "abi": [
    {
      "constant": true,
      "inputs": [
        {
          "internalType": "uint256",
          "name": "",
          "type": "uint256"
        }
      ],
      "name": "data",
      "outputs": [
        {
          "internalType": "string",
          "name": "hashOfOriginalDataString",
          "type": "string"
        },
        {
          "internalType": "string",
          "name": "secondTimeEncryptedString",
          "type": "string"
        },
        {
          "internalType": "address",
          "name": "sender",
          "type": "address"
        },
        {
          "internalType": "string",
          "name": "medReportId",
          "type": "string"
        }
      ],
      "payable": false,
      "stateMutability": "view",
      "type": "function"
    },
    {
      "constant": true,
      "inputs": [
        {
          "internalType": "address",
          "name": "",
          "type": "address"
        }
      ],
      "name": "senders",
      "outputs": [
        {
          "internalType": "uint256",
          "name": "totalMedicalReports",
          "type": "uint256"
        }
      ],
      "payable": false,
      "stateMutability": "view",
      "type": "function"
    },
    {
      "constant": true,
      "inputs": [],
      "name": "totalMedicalReports",
      "outputs": [
        {
          "internalType": "uint256",
          "name": "",
          "type": "uint256"
        }
      ],
      "payable": false,
      "stateMutability": "view",
      "type": "function"
    },
    {
      "constant": false,
      "inputs": [
        {
          "internalType": "string",
          "name": "secondTimeEncryptedString",
          "type": "string"
        },
        {
          "internalType": "string",
          "name": "hashOfOriginalDataString",
          "type": "string"
        },
        {
          "internalType": "string",
          "name": "medReportId",
          "type": "string"
        }
      ],
      "name": "saveData",
      "outputs": [],
      "payable": false,
      "stateMutability": "nonpayable",
      "type": "function"
    }
  ],
  "bytecode": "0x60806040526000805534801561001457600080fd5b5061073f806100246000396000f3fe608060405234801561001057600080fd5b506004361061004c5760003560e01c80632320b16b14610051578063982fb9d814610207578063e7ee5d521461023f578063f0ba844014610247575b600080fd5b6102056004803603606081101561006757600080fd5b81019060208101813564010000000081111561008257600080fd5b82018360208201111561009457600080fd5b803590602001918460018302840111640100000000831117156100b657600080fd5b91908080601f016020809104026020016040519081016040528093929190818152602001838380828437600092019190915250929594936020810193503591505064010000000081111561010957600080fd5b82018360208201111561011b57600080fd5b8035906020019184600183028401116401000000008311171561013d57600080fd5b91908080601f016020809104026020016040519081016040528093929190818152602001838380828437600092019190915250929594936020810193503591505064010000000081111561019057600080fd5b8201836020820111156101a257600080fd5b803590602001918460018302840111640100000000831117156101c457600080fd5b91908080601f0160208091040260200160405190810160405280939291908181526020018383808284376000920191909152509295506103c1945050505050565b005b61022d6004803603602081101561021d57600080fd5b50356001600160a01b031661047b565b60408051918252519081900360200190f35b61022d61048d565b6102646004803603602081101561025d57600080fd5b5035610493565b604051808060200180602001856001600160a01b03166001600160a01b0316815260200180602001848103845288818151815260200191508051906020019080838360005b838110156102c15781810151838201526020016102a9565b50505050905090810190601f1680156102ee5780820380516001836020036101000a031916815260200191505b50848103835287518152875160209182019189019080838360005b83811015610321578181015183820152602001610309565b50505050905090810190601f16801561034e5780820380516001836020036101000a031916815260200191505b50848103825285518152855160209182019187019080838360005b83811015610381578181015183820152602001610369565b50505050905090810190601f1680156103ae5780820380516001836020036101000a031916815260200191505b5097505050505050505060405180910390f35b60008054815260016020818152604090922085516103e79391909201919086019061066f565b5060008054815260016020908152604090912083516104089285019061066f565b5060008054815260016020908152604080832060020180546001600160a01b031916331790558254835290912082516104499260039092019184019061066f565b505060008054600180820183553383526002602090815260408085208054808501825586529092019052909120555050565b60026020526000908152604090205481565b60005481565b60016020818152600092835260409283902080548451600294821615610100026000190190911693909304601f81018390048302840183019094528383529283918301828280156105255780601f106104fa57610100808354040283529160200191610525565b820191906000526020600020905b81548152906001019060200180831161050857829003601f168201915b505050505090806001018054600181600116156101000203166002900480601f0160208091040260200160405190810160405280929190818152602001828054600181600116156101000203166002900480156105c35780601f10610598576101008083540402835291602001916105c3565b820191906000526020600020905b8154815290600101906020018083116105a657829003601f168201915b505050506002838101546003850180546040805160206101006001851615026000190190931695909504601f810183900483028601830190915280855295966001600160a01b03909316959294509091908301828280156106655780601f1061063a57610100808354040283529160200191610665565b820191906000526020600020905b81548152906001019060200180831161064857829003601f168201915b5050505050905084565b828054600181600116156101000203166002900490600052602060002090601f016020900481019282601f106106b057805160ff19168380011785556106dd565b828001600101855582156106dd579182015b828111156106dd5782518255916020019190600101906106c2565b506106e99291506106ed565b5090565b61070791905b808211156106e957600081556001016106f3565b9056fea265627a7a72315820faedca9b489cdb9417e6ac7c42c915dc57af6d86e224d5f725ae4c41bb76301364736f6c63430005100032",
  "source": "pragma solidity 0.5.16;\n\ncontract SaveData {\n  uint public totalMedicalReports = 0;\n  mapping(uint => Data) public data;\n  mapping(address => Sender) public senders;\n\n  struct Sender {\n    uint totalMedicalReports;\n    mapping(uint => uint) data;\n  }\n\n  struct Data {\n    string hashOfOriginalDataString;\n    string secondTimeEncryptedString;\n    address sender;\n    string medReportId;\n  }\n\n  function saveData(\n    string memory secondTimeEncryptedString,\n    string memory hashOfOriginalDataString,\n    string memory medReportId\n  ) public {\n    data[totalMedicalReports].secondTimeEncryptedString = secondTimeEncryptedString;\n    data[totalMedicalReports].hashOfOriginalDataString = hashOfOriginalDataString;\n    data[totalMedicalReports].sender = msg.sender;\n    data[totalMedicalReports].medReportId = medReportId;\n\n    senders[msg.sender].data[senders[msg.sender].totalMedicalReports++] = totalMedicalReports++;\n  }\n}\n",
  "sourcePath": "C:\\Users\\Asus\\health-chain\\contracts\\SaveData.sol",
  "compiler": {
    "name": "solc",
    "version": "0.5.16+commit.9c3226ce.Emscripten.clang"
  },
  "schemaVersion": "3.4.16",
  "updatedAt": "2023-10-14T08:13:06.940Z",
  "networkType": "ethereum",
  "devdoc": {
    "methods": {}
  },
  "userdoc": {
    "methods": {}
  }
}